:020000040000FA
:0400000028EF00F0F5
:020004000000FA
:10005000926A936A94680F0EC16E82AC01D003D08D
:1000600082AA92D003D082AA04D00BD082B879D0D1
:1000700003D082B89AD000D082B600D082B45ED0CD
:10008000BAD0808080948096818681988194818A7C
:10009000040E006F000ED76E2A0ED66E0EEC01F025
:1000A0000007F8E182A8C2D0809680908084818A7F
:1000B000818481968198040E006F000ED76E1A0E0F
:1000C000D66E0EEC01F00007F8E116EF01F080802B
:1000D00080848086818681888194819A0B0E006F4E
:1000E000000ED76E0F0ED66E0EEC01F000071CE16D
:1000F00080908094808681848188819A8196070E81
:10010000006F000ED76E3F0ED66E0EEC01F00007AA
:10011000F8E182A88BD0809080968084818A818447
:1001200081968198080E006F000ED76E1A0ED66E5B
:100130000EEC01F00007F8E116EF01F080908094DA
:100140008086818881848196819A090E006F000ED5
:10015000D76E2A0ED66E0EEC01F00007F8E116EF0E
:1001600001F0809080968084818A81848196819834
:10017000080E006F000ED76E1A0ED66E0EEC01F050
:100180000007F8E116EF01F0809080948096818658
:1001900081888194819A060E006F000ED76E1F0E23
:1001A000D66E0EEC01F00007F8E180908094808616
:1001B000818881848196819A060E006F000ED76E29
:1001C0002A0ED66E0EEC01F00007F8E182A82ED0C0
:1001D000809080968084818A818481968198080E9F
:1001E000006F000ED76E180ED66E0EEC01F00007F1
:1001F000F8E116EF01F080908094809681868188E6
:100200008194819A0C0E006F000ED76E1F0ED66E71
:100210000EEC01F00007F8E116EF01F0080ED56EC4
:10022000F294D58EF2A4FED7D59E120080828084EF
:100230008086819481968198819A020E006F000ECB
:10024000D76E080ED66E0EEC01F00007F8E12DEF28
:0202500000F0BC
:020000040030CA
:0100010002FC
:010003001EDE
:010005008179
:010006008178
:00000001FF
